{
    "_format": "hh-sol-artifact-1",
    "contractName": "NFTMinter",
    "sourceName": "contracts/NFTMinter.sol",
    "abi": [
        {
            "inputs": [],
            "stateMutability": "nonpayable",
            "type": "constructor"
        },
        {
            "anonymous": false,
            "inputs": [
                {
                    "indexed": true,
                    "internalType": "address",
                    "name": "owner",
                    "type": "address"
                },
                {
                    "indexed": true,
                    "internalType": "address",
                    "name": "approved",
                    "type": "address"
                },
                {
                    "indexed": true,
                    "internalType": "uint256",
                    "name": "tokenId",
                    "type": "uint256"
                }
            ],
            "name": "Approval",
            "type": "event"
        },
        {
            "anonymous": false,
            "inputs": [
                {
                    "indexed": true,
                    "internalType": "address",
                    "name": "owner",
                    "type": "address"
                },
                {
                    "indexed": true,
                    "internalType": "address",
                    "name": "operator",
                    "type": "address"
                },
                {
                    "indexed": false,
                    "internalType": "bool",
                    "name": "approved",
                    "type": "bool"
                }
            ],
            "name": "ApprovalForAll",
            "type": "event"
        },
        {
            "anonymous": false,
            "inputs": [
                {
                    "indexed": false,
                    "internalType": "uint256",
                    "name": "_fromTokenId",
                    "type": "uint256"
                },
                {
                    "indexed": false,
                    "internalType": "uint256",
                    "name": "_toTokenId",
                    "type": "uint256"
                }
            ],
            "name": "BatchMetadataUpdate",
            "type": "event"
        },
        {
            "anonymous": false,
            "inputs": [
                {
                    "indexed": false,
                    "internalType": "uint256",
                    "name": "_tokenId",
                    "type": "uint256"
                }
            ],
            "name": "MetadataUpdate",
            "type": "event"
        },
        {
            "anonymous": false,
            "inputs": [
                {
                    "indexed": true,
                    "internalType": "address",
                    "name": "from",
                    "type": "address"
                },
                {
                    "indexed": true,
                    "internalType": "address",
                    "name": "to",
                    "type": "address"
                },
                {
                    "indexed": true,
                    "internalType": "uint256",
                    "name": "tokenId",
                    "type": "uint256"
                }
            ],
            "name": "Transfer",
            "type": "event"
        },
        {
            "inputs": [
                {
                    "internalType": "address",
                    "name": "to",
                    "type": "address"
                },
                {
                    "internalType": "uint256",
                    "name": "tokenId",
                    "type": "uint256"
                }
            ],
            "name": "approve",
            "outputs": [],
            "stateMutability": "nonpayable",
            "type": "function"
        },
        {
            "inputs": [
                {
                    "internalType": "address",
                    "name": "owner",
                    "type": "address"
                }
            ],
            "name": "balanceOf",
            "outputs": [
                {
                    "internalType": "uint256",
                    "name": "",
                    "type": "uint256"
                }
            ],
            "stateMutability": "view",
            "type": "function"
        },
        {
            "inputs": [
                {
                    "internalType": "uint256",
                    "name": "tokenId",
                    "type": "uint256"
                }
            ],
            "name": "getApproved",
            "outputs": [
                {
                    "internalType": "address",
                    "name": "",
                    "type": "address"
                }
            ],
            "stateMutability": "view",
            "type": "function"
        },
        {
            "inputs": [
                {
                    "internalType": "address",
                    "name": "owner",
                    "type": "address"
                },
                {
                    "internalType": "address",
                    "name": "operator",
                    "type": "address"
                }
            ],
            "name": "isApprovedForAll",
            "outputs": [
                {
                    "internalType": "bool",
                    "name": "",
                    "type": "bool"
                }
            ],
            "stateMutability": "view",
            "type": "function"
        },
        {
            "inputs": [
                {
                    "internalType": "address",
                    "name": "recipient",
                    "type": "address"
                },
                {
                    "internalType": "string",
                    "name": "tokenURI",
                    "type": "string"
                }
            ],
            "name": "mintNFT",
            "outputs": [
                {
                    "internalType": "uint256",
                    "name": "",
                    "type": "uint256"
                }
            ],
            "stateMutability": "payable",
            "type": "function"
        },
        {
            "inputs": [],
            "name": "mintPrice",
            "outputs": [
                {
                    "internalType": "uint256",
                    "name": "",
                    "type": "uint256"
                }
            ],
            "stateMutability": "view",
            "type": "function"
        },
        {
            "inputs": [],
            "name": "name",
            "outputs": [
                {
                    "internalType": "string",
                    "name": "",
                    "type": "string"
                }
            ],
            "stateMutability": "view",
            "type": "function"
        },
        {
            "inputs": [
                {
                    "internalType": "uint256",
                    "name": "tokenId",
                    "type": "uint256"
                }
            ],
            "name": "ownerOf",
            "outputs": [
                {
                    "internalType": "address",
                    "name": "",
                    "type": "address"
                }
            ],
            "stateMutability": "view",
            "type": "function"
        },
        {
            "inputs": [
                {
                    "internalType": "address",
                    "name": "from",
                    "type": "address"
                },
                {
                    "internalType": "address",
                    "name": "to",
                    "type": "address"
                },
                {
                    "internalType": "uint256",
                    "name": "tokenId",
                    "type": "uint256"
                }
            ],
            "name": "safeTransferFrom",
            "outputs": [],
            "stateMutability": "nonpayable",
            "type": "function"
        },
        {
            "inputs": [
                {
                    "internalType": "address",
                    "name": "from",
                    "type": "address"
                },
                {
                    "internalType": "address",
                    "name": "to",
                    "type": "address"
                },
                {
                    "internalType": "uint256",
                    "name": "tokenId",
                    "type": "uint256"
                },
                {
                    "internalType": "bytes",
                    "name": "data",
                    "type": "bytes"
                }
            ],
            "name": "safeTransferFrom",
            "outputs": [],
            "stateMutability": "nonpayable",
            "type": "function"
        },
        {
            "inputs": [
                {
                    "internalType": "address",
                    "name": "operator",
                    "type": "address"
                },
                {
                    "internalType": "bool",
                    "name": "approved",
                    "type": "bool"
                }
            ],
            "name": "setApprovalForAll",
            "outputs": [],
            "stateMutability": "nonpayable",
            "type": "function"
        },
        {
            "inputs": [
                {
                    "internalType": "bytes4",
                    "name": "interfaceId",
                    "type": "bytes4"
                }
            ],
            "name": "supportsInterface",
            "outputs": [
                {
                    "internalType": "bool",
                    "name": "",
                    "type": "bool"
                }
            ],
            "stateMutability": "view",
            "type": "function"
        },
        {
            "inputs": [],
            "name": "symbol",
            "outputs": [
                {
                    "internalType": "string",
                    "name": "",
                    "type": "string"
                }
            ],
            "stateMutability": "view",
            "type": "function"
        },
        {
            "inputs": [
                {
                    "internalType": "uint256",
                    "name": "tokenId",
                    "type": "uint256"
                }
            ],
            "name": "tokenURI",
            "outputs": [
                {
                    "internalType": "string",
                    "name": "",
                    "type": "string"
                }
            ],
            "stateMutability": "view",
            "type": "function"
        },
        {
            "inputs": [
                {
                    "internalType": "address",
                    "name": "from",
                    "type": "address"
                },
                {
                    "internalType": "address",
                    "name": "to",
                    "type": "address"
                },
                {
                    "internalType": "uint256",
                    "name": "tokenId",
                    "type": "uint256"
                }
            ],
            "name": "transferFrom",
            "outputs": [],
            "stateMutability": "nonpayable",
            "type": "function"
        }
    ],
    "bytecode": "0x6080604052670de0b6b3a76400006008553480156200001d57600080fd5b506040518060400160405280601681526020017f536861726465756d20446576204e46544d696e746572000000000000000000008152506040518060400160405280600481526020017f534e4654000000000000000000000000000000000000000000000000000000008152508160009080519060200190620000a2929190620000c4565b508060019080519060200190620000bb929190620000c4565b505050620001d9565b828054620000d29062000174565b90600052602060002090601f016020900481019282620000f6576000855562000142565b82601f106200011157805160ff191683800117855562000142565b8280016001018555821562000142579182015b828111156200014157825182559160200191906001019062000124565b5b50905062000151919062000155565b5090565b5b808211156200017057600081600090555060010162000156565b5090565b600060028204905060018216806200018d57607f821691505b60208210811415620001a457620001a3620001aa565b5b50919050565b7f4e487b7100000000000000000000000000000000000000000000000000000000600052602260045260246000fd5b612b9280620001e96000396000f3fe6080604052600436106100e85760003560e01c80636817c76c1161008a578063b88d4fde11610059578063b88d4fde14610306578063c87b56dd1461032f578063e985e9c51461036c578063eacabe14146103a9576100e8565b80636817c76c1461024a57806370a082311461027557806395d89b41146102b2578063a22cb465146102dd576100e8565b8063095ea7b3116100c6578063095ea7b31461019257806323b872dd146101bb57806342842e0e146101e45780636352211e1461020d576100e8565b806301ffc9a7146100ed57806306fdde031461012a578063081812fc14610155575b600080fd5b3480156100f957600080fd5b50610114600480360381019061010f9190611fae565b6103d9565b604051610121919061234b565b60405180910390f35b34801561013657600080fd5b5061013f61043a565b60405161014c9190612366565b60405180910390f35b34801561016157600080fd5b5061017c60048036038101906101779190612000565b6104cc565b60405161018991906122e4565b60405180910390f35b34801561019e57600080fd5b506101b960048036038101906101b49190611f72565b610512565b005b3480156101c757600080fd5b506101e260048036038101906101dd9190611e18565b61062a565b005b3480156101f057600080fd5b5061020b60048036038101906102069190611e18565b61068a565b005b34801561021957600080fd5b50610234600480360381019061022f9190612000565b6106aa565b60405161024191906122e4565b60405180910390f35b34801561025657600080fd5b5061025f610731565b60405161026c9190612528565b60405180910390f35b34801561028157600080fd5b5061029c60048036038101906102979190611db3565b610737565b6040516102a99190612528565b60405180910390f35b3480156102be57600080fd5b506102c76107ef565b6040516102d49190612366565b60405180910390f35b3480156102e957600080fd5b5061030460048036038101906102ff9190611ee2565b610881565b005b34801561031257600080fd5b5061032d60048036038101906103289190611e67565b610897565b005b34801561033b57600080fd5b5061035660048036038101906103519190612000565b6108f9565b6040516103639190612366565b60405180910390f35b34801561037857600080fd5b50610393600480360381019061038e9190611ddc565b610a0c565b6040516103a0919061234b565b60405180910390f35b6103c360048036038101906103be9190611f1e565b610aa0565b6040516103d09190612528565b60405180910390f35b6000634906490660e01b7bffffffffffffffffffffffffffffffffffffffffffffffffffffffff1916827bffffffffffffffffffffffffffffffffffffffffffffffffffffffff19161480610433575061043282610b1c565b5b9050919050565b606060008054610449906126c3565b80601f0160208091040260200160405190810160405280929190818152602001828054610475906126c3565b80156104c25780601f10610497576101008083540402835291602001916104c2565b820191906000526020600020905b8154815290600101906020018083116104a557829003601f168201915b5050505050905090565b60006104d782610bfe565b6004600083815260200190815260200160002060009054906101000a900473ffffffffffffffffffffffffffffffffffffffff169050919050565b600061051d826106aa565b90508073ffffffffffffffffffffffffffffffffffffffff168373ffffffffffffffffffffffffffffffffffffffff16141561058e576040517f08c379a0000000000000000000000000000000000000000000000000000000008152600401610585906124c8565b60405180910390fd5b8073ffffffffffffffffffffffffffffffffffffffff166105ad610c49565b73ffffffffffffffffffffffffffffffffffffffff1614806105dc57506105db816105d6610c49565b610a0c565b5b61061b576040517f08c379a000000000000000000000000000000000000000000000000000000000815260040161061290612508565b60405180910390fd5b6106258383610c51565b505050565b61063b610635610c49565b82610d0a565b61067a576040517f08c379a000000000000000000000000000000000000000000000000000000000815260040161067190612388565b60405180910390fd5b610685838383610d9f565b505050565b6106a583838360405180602001604052806000815250610897565b505050565b6000806106b683611099565b9050600073ffffffffffffffffffffffffffffffffffffffff168173ffffffffffffffffffffffffffffffffffffffff161415610728576040517f08c379a000000000000000000000000000000000000000000000000000000000815260040161071f906124a8565b60405180910390fd5b80915050919050565b60085481565b60008073ffffffffffffffffffffffffffffffffffffffff168273ffffffffffffffffffffffffffffffffffffffff1614156107a8576040517f08c379a000000000000000000000000000000000000000000000000000000000815260040161079f90612448565b60405180910390fd5b600360008373ffffffffffffffffffffffffffffffffffffffff1673ffffffffffffffffffffffffffffffffffffffff168152602001908152602001600020549050919050565b6060600180546107fe906126c3565b80601f016020809104026020016040519081016040528092919081815260200182805461082a906126c3565b80156108775780601f1061084c57610100808354040283529160200191610877565b820191906000526020600020905b81548152906001019060200180831161085a57829003601f168201915b5050505050905090565b61089361088c610c49565b83836110d6565b5050565b6108a86108a2610c49565b83610d0a565b6108e7576040517f08c379a00000000000000000000000000000000000000000000000000000000081526004016108de90612388565b60405180910390fd5b6108f384848484611243565b50505050565b606061090482610bfe565b6000600660008481526020019081526020016000208054610924906126c3565b80601f0160208091040260200160405190810160405280929190818152602001828054610950906126c3565b801561099d5780601f106109725761010080835404028352916020019161099d565b820191906000526020600020905b81548152906001019060200180831161098057829003601f168201915b5050505050905060006109ae61129f565b90506000815114156109c4578192505050610a07565b6000825111156109f95780826040516020016109e19291906122c0565b60405160208183030381529060405292505050610a07565b610a02846112b6565b925050505b919050565b6000600560008473ffffffffffffffffffffffffffffffffffffffff1673ffffffffffffffffffffffffffffffffffffffff16815260200190815260200160002060008373ffffffffffffffffffffffffffffffffffffffff1673ffffffffffffffffffffffffffffffffffffffff16815260200190815260200160002060009054906101000a900460ff16905092915050565b60006008543414610ae6576040517f08c379a0000000000000000000000000000000000000000000000000000000008152600401610add906124e8565b60405180910390fd5b610af0600761131e565b6000610afc6007611334565b9050610b088482611342565b610b128184611560565b8091505092915050565b60007f80ac58cd000000000000000000000000000000000000000000000000000000007bffffffffffffffffffffffffffffffffffffffffffffffffffffffff1916827bffffffffffffffffffffffffffffffffffffffffffffffffffffffff19161480610be757507f5b5e139f000000000000000000000000000000000000000000000000000000007bffffffffffffffffffffffffffffffffffffffffffffffffffffffff1916827bffffffffffffffffffffffffffffffffffffffffffffffffffffffff1916145b80610bf75750610bf68261160b565b5b9050919050565b610c0781611675565b610c46576040517f08c379a0000000000000000000000000000000000000000000000000000000008152600401610c3d906124a8565b60405180910390fd5b50565b600033905090565b816004600083815260200190815260200160002060006101000a81548173ffffffffffffffffffffffffffffffffffffffff021916908373ffffffffffffffffffffffffffffffffffffffff160217905550808273ffffffffffffffffffffffffffffffffffffffff16610cc4836106aa565b73ffffffffffffffffffffffffffffffffffffffff167f8c5be1e5ebec7d5bd14f71427d1e84f3dd0314c0f7b2291e5b200ac8c7c3b92560405160405180910390a45050565b600080610d16836106aa565b90508073ffffffffffffffffffffffffffffffffffffffff168473ffffffffffffffffffffffffffffffffffffffff161480610d585750610d578185610a0c565b5b80610d9657508373ffffffffffffffffffffffffffffffffffffffff16610d7e846104cc565b73ffffffffffffffffffffffffffffffffffffffff16145b91505092915050565b8273ffffffffffffffffffffffffffffffffffffffff16610dbf826106aa565b73ffffffffffffffffffffffffffffffffffffffff1614610e15576040517f08c379a0000000000000000000000000000000000000000000000000000000008152600401610e0c906123c8565b60405180910390fd5b600073ffffffffffffffffffffffffffffffffffffffff168273ffffffffffffffffffffffffffffffffffffffff161415610e85576040517f08c379a0000000000000000000000000000000000000000000000000000000008152600401610e7c90612408565b60405180910390fd5b610e9283838360016116b6565b8273ffffffffffffffffffffffffffffffffffffffff16610eb2826106aa565b73ffffffffffffffffffffffffffffffffffffffff1614610f08576040517f08c379a0000000000000000000000000000000000000000000000000000000008152600401610eff906123c8565b60405180910390fd5b6004600082815260200190815260200160002060006101000a81549073ffffffffffffffffffffffffffffffffffffffff02191690556001600360008573ffffffffffffffffffffffffffffffffffffffff1673ffffffffffffffffffffffffffffffffffffffff168152602001908152602001600020600082825403925050819055506001600360008473ffffffffffffffffffffffffffffffffffffffff1673ffffffffffffffffffffffffffffffffffffffff16815260200190815260200160002060008282540192505081905550816002600083815260200190815260200160002060006101000a81548173ffffffffffffffffffffffffffffffffffffffff021916908373ffffffffffffffffffffffffffffffffffffffff160217905550808273ffffffffffffffffffffffffffffffffffffffff168473ffffffffffffffffffffffffffffffffffffffff167fddf252ad1be2c89b69c2b068fc378daa952ba7f163c4a11628f55a4df523b3ef60405160405180910390a461109483838360016116bc565b505050565b60006002600083815260200190815260200160002060009054906101000a900473ffffffffffffffffffffffffffffffffffffffff169050919050565b8173ffffffffffffffffffffffffffffffffffffffff168373ffffffffffffffffffffffffffffffffffffffff161415611145576040517f08c379a000000000000000000000000000000000000000000000000000000000815260040161113c90612428565b60405180910390fd5b80600560008573ffffffffffffffffffffffffffffffffffffffff1673ffffffffffffffffffffffffffffffffffffffff16815260200190815260200160002060008473ffffffffffffffffffffffffffffffffffffffff1673ffffffffffffffffffffffffffffffffffffffff16815260200190815260200160002060006101000a81548160ff0219169083151502179055508173ffffffffffffffffffffffffffffffffffffffff168373ffffffffffffffffffffffffffffffffffffffff167f17307eab39ab6107e8899845ad3d59bd9653f200f220920489ca2b5937696c3183604051611236919061234b565b60405180910390a3505050565b61124e848484610d9f565b61125a848484846116c2565b611299576040517f08c379a0000000000000000000000000000000000000000000000000000000008152600401611290906123a8565b60405180910390fd5b50505050565b606060405180602001604052806000815250905090565b60606112c182610bfe565b60006112cb61129f565b905060008151116112eb5760405180602001604052806000815250611316565b806112f584611859565b6040516020016113069291906122c0565b6040516020818303038152906040525b915050919050565b6001816000016000828254019250508190555050565b600081600001549050919050565b600073ffffffffffffffffffffffffffffffffffffffff168273ffffffffffffffffffffffffffffffffffffffff1614156113b2576040517f08c379a00000000000000000000000000000000000000000000000000000000081526004016113a990612488565b60405180910390fd5b6113bb81611675565b156113fb576040517f08c379a00000000000000000000000000000000000000000000000000000000081526004016113f2906123e8565b60405180910390fd5b6114096000838360016116b6565b61141281611675565b15611452576040517f08c379a0000000000000000000000000000000000000000000000000000000008152600401611449906123e8565b60405180910390fd5b6001600360008473ffffffffffffffffffffffffffffffffffffffff1673ffffffffffffffffffffffffffffffffffffffff16815260200190815260200160002060008282540192505081905550816002600083815260200190815260200160002060006101000a81548173ffffffffffffffffffffffffffffffffffffffff021916908373ffffffffffffffffffffffffffffffffffffffff160217905550808273ffffffffffffffffffffffffffffffffffffffff16600073ffffffffffffffffffffffffffffffffffffffff167fddf252ad1be2c89b69c2b068fc378daa952ba7f163c4a11628f55a4df523b3ef60405160405180910390a461155c6000838360016116bc565b5050565b61156982611675565b6115a8576040517f08c379a000000000000000000000000000000000000000000000000000000000815260040161159f90612468565b60405180910390fd5b806006600084815260200190815260200160002090805190602001906115cf929190611bd7565b507ff8e1a15aba9398e019f0b49df1a4fde98ee17ae345cb5f6b5e2c27f5033e8ce7826040516115ff9190612528565b60405180910390a15050565b60007f01ffc9a7000000000000000000000000000000000000000000000000000000007bffffffffffffffffffffffffffffffffffffffffffffffffffffffff1916827bffffffffffffffffffffffffffffffffffffffffffffffffffffffff1916149050919050565b60008073ffffffffffffffffffffffffffffffffffffffff1661169783611099565b73ffffffffffffffffffffffffffffffffffffffff1614159050919050565b50505050565b50505050565b60006116e38473ffffffffffffffffffffffffffffffffffffffff1661197d565b1561184c578373ffffffffffffffffffffffffffffffffffffffff1663150b7a0261170c610c49565b8786866040518563ffffffff1660e01b815260040161172e94939291906122ff565b602060405180830381600087803b15801561174857600080fd5b505af192505050801561177957506040513d601f19601f820116820180604052508101906117769190611fd7565b60015b6117fc573d80600081146117a9576040519150601f19603f3d011682016040523d82523d6000602084013e6117ae565b606091505b506000815114156117f4576040517f08c379a00000000000000000000000000000000000000000000000000000000081526004016117eb906123a8565b60405180910390fd5b805181602001fd5b63150b7a0260e01b7bffffffffffffffffffffffffffffffffffffffffffffffffffffffff1916817bffffffffffffffffffffffffffffffffffffffffffffffffffffffff191614915050611851565b600190505b949350505050565b606060006001611868846119a0565b01905060008167ffffffffffffffff8111156118ad577f4e487b7100000000000000000000000000000000000000000000000000000000600052604160045260246000fd5b6040519080825280601f01601f1916602001820160405280156118df5781602001600182028036833780820191505090505b509050600082602001820190505b600115611972578080600190039150507f3031323334353637383961626364656600000000000000000000000000000000600a86061a8153600a858161195c577f4e487b7100000000000000000000000000000000000000000000000000000000600052601260045260246000fd5b049450600085141561196d57611972565b6118ed565b819350505050919050565b6000808273ffffffffffffffffffffffffffffffffffffffff163b119050919050565b600080600090507a184f03e93ff9f4daa797ed6e38ed64bf6a1f0100000000000000008310611a24577a184f03e93ff9f4daa797ed6e38ed64bf6a1f0100000000000000008381611a1a577f4e487b7100000000000000000000000000000000000000000000000000000000600052601260045260246000fd5b0492506040810190505b6d04ee2d6d415b85acef81000000008310611a87576d04ee2d6d415b85acef81000000008381611a7d577f4e487b7100000000000000000000000000000000000000000000000000000000600052601260045260246000fd5b0492506020810190505b662386f26fc100008310611adc57662386f26fc100008381611ad2577f4e487b7100000000000000000000000000000000000000000000000000000000600052601260045260246000fd5b0492506010810190505b6305f5e1008310611b2b576305f5e1008381611b21577f4e487b7100000000000000000000000000000000000000000000000000000000600052601260045260246000fd5b0492506008810190505b6127108310611b76576127108381611b6c577f4e487b7100000000000000000000000000000000000000000000000000000000600052601260045260246000fd5b0492506004810190505b60648310611bbf5760648381611bb5577f4e487b7100000000000000000000000000000000000000000000000000000000600052601260045260246000fd5b0492506002810190505b600a8310611bce576001810190505b80915050919050565b828054611be3906126c3565b90600052602060002090601f016020900481019282611c055760008555611c4c565b82601f10611c1e57805160ff1916838001178555611c4c565b82800160010185558215611c4c579182015b82811115611c4b578251825591602001919060010190611c30565b5b509050611c599190611c5d565b5090565b5b80821115611c76576000816000905550600101611c5e565b5090565b6000611c8d611c8884612568565b612543565b905082815260208101848484011115611ca557600080fd5b611cb0848285612681565b509392505050565b6000611ccb611cc684612599565b612543565b905082815260208101848484011115611ce357600080fd5b611cee848285612681565b509392505050565b600081359050611d0581612b00565b92915050565b600081359050611d1a81612b17565b92915050565b600081359050611d2f81612b2e565b92915050565b600081519050611d4481612b2e565b92915050565b600082601f830112611d5b57600080fd5b8135611d6b848260208601611c7a565b91505092915050565b600082601f830112611d8557600080fd5b8135611d95848260208601611cb8565b91505092915050565b600081359050611dad81612b45565b92915050565b600060208284031215611dc557600080fd5b6000611dd384828501611cf6565b91505092915050565b60008060408385031215611def57600080fd5b6000611dfd85828601611cf6565b9250506020611e0e85828601611cf6565b9150509250929050565b600080600060608486031215611e2d57600080fd5b6000611e3b86828701611cf6565b9350506020611e4c86828701611cf6565b9250506040611e5d86828701611d9e565b9150509250925092565b60008060008060808587031215611e7d57600080fd5b6000611e8b87828801611cf6565b9450506020611e9c87828801611cf6565b9350506040611ead87828801611d9e565b925050606085013567ffffffffffffffff811115611eca57600080fd5b611ed687828801611d4a565b91505092959194509250565b60008060408385031215611ef557600080fd5b6000611f0385828601611cf6565b9250506020611f1485828601611d0b565b9150509250929050565b60008060408385031215611f3157600080fd5b6000611f3f85828601611cf6565b925050602083013567ffffffffffffffff811115611f5c57600080fd5b611f6885828601611d74565b9150509250929050565b60008060408385031215611f8557600080fd5b6000611f9385828601611cf6565b9250506020611fa485828601611d9e565b9150509250929050565b600060208284031215611fc057600080fd5b6000611fce84828501611d20565b91505092915050565b600060208284031215611fe957600080fd5b6000611ff784828501611d35565b91505092915050565b60006020828403121561201257600080fd5b600061202084828501611d9e565b91505092915050565b6120328161260d565b82525050565b6120418161261f565b82525050565b6000612052826125ca565b61205c81856125e0565b935061206c818560208601612690565b61207581612784565b840191505092915050565b600061208b826125d5565b61209581856125f1565b93506120a5818560208601612690565b6120ae81612784565b840191505092915050565b60006120c4826125d5565b6120ce8185612602565b93506120de818560208601612690565b80840191505092915050565b60006120f7602d836125f1565b915061210282612795565b604082019050919050565b600061211a6032836125f1565b9150612125826127e4565b604082019050919050565b600061213d6025836125f1565b915061214882612833565b604082019050919050565b6000612160601c836125f1565b915061216b82612882565b602082019050919050565b60006121836024836125f1565b915061218e826128ab565b604082019050919050565b60006121a66019836125f1565b91506121b1826128fa565b602082019050919050565b60006121c96029836125f1565b91506121d482612923565b604082019050919050565b60006121ec602e836125f1565b91506121f782612972565b604082019050919050565b600061220f6020836125f1565b915061221a826129c1565b602082019050919050565b60006122326018836125f1565b915061223d826129ea565b602082019050919050565b60006122556021836125f1565b915061226082612a13565b604082019050919050565b6000612278602a836125f1565b915061228382612a62565b604082019050919050565b600061229b603d836125f1565b91506122a682612ab1565b604082019050919050565b6122ba81612677565b82525050565b60006122cc82856120b9565b91506122d882846120b9565b91508190509392505050565b60006020820190506122f96000830184612029565b92915050565b60006080820190506123146000830187612029565b6123216020830186612029565b61232e60408301856122b1565b81810360608301526123408184612047565b905095945050505050565b60006020820190506123606000830184612038565b92915050565b600060208201905081810360008301526123808184612080565b905092915050565b600060208201905081810360008301526123a1816120ea565b9050919050565b600060208201905081810360008301526123c18161210d565b9050919050565b600060208201905081810360008301526123e181612130565b9050919050565b6000602082019050818103600083015261240181612153565b9050919050565b6000602082019050818103600083015261242181612176565b9050919050565b6000602082019050818103600083015261244181612199565b9050919050565b60006020820190508181036000830152612461816121bc565b9050919050565b60006020820190508181036000830152612481816121df565b9050919050565b600060208201905081810360008301526124a181612202565b9050919050565b600060208201905081810360008301526124c181612225565b9050919050565b600060208201905081810360008301526124e181612248565b9050919050565b600060208201905081810360008301526125018161226b565b9050919050565b600060208201905081810360008301526125218161228e565b9050919050565b600060208201905061253d60008301846122b1565b92915050565b600061254d61255e565b905061255982826126f5565b919050565b6000604051905090565b600067ffffffffffffffff82111561258357612582612755565b5b61258c82612784565b9050602081019050919050565b600067ffffffffffffffff8211156125b4576125b3612755565b5b6125bd82612784565b9050602081019050919050565b600081519050919050565b600081519050919050565b600082825260208201905092915050565b600082825260208201905092915050565b600081905092915050565b600061261882612657565b9050919050565b60008115159050919050565b60007fffffffff0000000000000000000000000000000000000000000000000000000082169050919050565b600073ffffffffffffffffffffffffffffffffffffffff82169050919050565b6000819050919050565b82818337600083830152505050565b60005b838110156126ae578082015181840152602081019050612693565b838111156126bd576000848401525b50505050565b600060028204905060018216806126db57607f821691505b602082108114156126ef576126ee612726565b5b50919050565b6126fe82612784565b810181811067ffffffffffffffff8211171561271d5761271c612755565b5b80604052505050565b7f4e487b7100000000000000000000000000000000000000000000000000000000600052602260045260246000fd5b7f4e487b7100000000000000000000000000000000000000000000000000000000600052604160045260246000fd5b6000601f19601f8301169050919050565b7f4552433732313a2063616c6c6572206973206e6f7420746f6b656e206f776e6560008201527f72206f7220617070726f76656400000000000000000000000000000000000000602082015250565b7f4552433732313a207472616e7366657220746f206e6f6e20455243373231526560008201527f63656976657220696d706c656d656e7465720000000000000000000000000000602082015250565b7f4552433732313a207472616e736665722066726f6d20696e636f72726563742060008201527f6f776e6572000000000000000000000000000000000000000000000000000000602082015250565b7f4552433732313a20746f6b656e20616c7265616479206d696e74656400000000600082015250565b7f4552433732313a207472616e7366657220746f20746865207a65726f2061646460008201527f7265737300000000000000000000000000000000000000000000000000000000602082015250565b7f4552433732313a20617070726f766520746f2063616c6c657200000000000000600082015250565b7f4552433732313a2061646472657373207a65726f206973206e6f74206120766160008201527f6c6964206f776e65720000000000000000000000000000000000000000000000602082015250565b7f45524337323155524953746f726167653a2055524920736574206f66206e6f6e60008201527f6578697374656e7420746f6b656e000000000000000000000000000000000000602082015250565b7f4552433732313a206d696e7420746f20746865207a65726f2061646472657373600082015250565b7f4552433732313a20696e76616c696420746f6b656e2049440000000000000000600082015250565b7f4552433732313a20617070726f76616c20746f2063757272656e74206f776e6560008201527f7200000000000000000000000000000000000000000000000000000000000000602082015250565b7f596f75206d7573742073656e642065786163746c7920312045544820746f206d60008201527f696e7420616e204e465400000000000000000000000000000000000000000000602082015250565b7f4552433732313a20617070726f76652063616c6c6572206973206e6f7420746f60008201527f6b656e206f776e6572206f7220617070726f76656420666f7220616c6c000000602082015250565b612b098161260d565b8114612b1457600080fd5b50565b612b208161261f565b8114612b2b57600080fd5b50565b612b378161262b565b8114612b4257600080fd5b50565b612b4e81612677565b8114612b5957600080fd5b5056fea264697066735822122033620f8570b24f34da7230600839409cc827e15a6b3cab491cf1131bf2a5986464736f6c63430008030033",
    "linkReferences": {},
    "deployedLinkReferences": {}
}