{
  "_format": "hh-sol-artifact-1",
  "contractName": "SwapToken",
  "sourceName": "contracts/SwapToken.sol",
  "abi": [
    {
      "inputs": [],
      "stateMutability": "nonpayable",
      "type": "constructor"
    },
    {
      "inputs": [
        {
          "internalType": "uint256",
          "name": "amountOutDesired",
          "type": "uint256"
        },
        {
          "internalType": "uint256",
          "name": "amountInMax",
          "type": "uint256"
        }
      ],
      "name": "swapSHMForTST",
      "outputs": [
        {
          "internalType": "uint256",
          "name": "amountOut",
          "type": "uint256"
        }
      ],
      "stateMutability": "nonpayable",
      "type": "function"
    },
    {
      "inputs": [
        {
          "internalType": "uint256",
          "name": "amountOutDesired",
          "type": "uint256"
        },
        {
          "internalType": "uint256",
          "name": "amountInMax",
          "type": "uint256"
        }
      ],
      "name": "swapTSTForSHM",
      "outputs": [
        {
          "internalType": "uint256",
          "name": "amountOut",
          "type": "uint256"
        }
      ],
      "stateMutability": "nonpayable",
      "type": "function"
    },
    {
      "inputs": [],
      "name": "uniswapRouter",
      "outputs": [
        {
          "internalType": "contract IUniswapV2Router02",
          "name": "",
          "type": "address"
        }
      ],
      "stateMutability": "view",
      "type": "function"
    }
  ],
  "bytecode": "0x6080604052600080546001600160a01b031990811673ae49c37fc1c0487fe1f3778570a496a9f01960ac90811790925560018054821673c02aaa39b223fe8d0a0e5c4f27ead9083c756cc29081179091556002805483169091179055600380548216735a1cdd07b84ea4273283a717ad722c00ede6e79e17905560048054909116909117905534801561009157600080fd5b50600580546001600160a01b031916737a250d5630b4cf539739df2c5dacb4c659f2488d179055610867806100c76000396000f3fe608060405234801561001057600080fd5b50600436106100415760003560e01c80630392382014610046578063735de9f71461006c578063dc6757d814610097575b600080fd5b61005961005436600461066a565b6100aa565b6040519081526020015b60405180910390f35b60055461007f906001600160a01b031681565b6040516001600160a01b039091168152602001610063565b6100596100a536600461066a565b6103d5565b6003546040516323b872dd60e01b8152336004820152306024820152604481018390526000916001600160a01b0316906323b872dd906064016020604051808303816000875af1158015610102573d6000803e3d6000fd5b505050506040513d601f19601f82011682018060405250810190610126919061068c565b5060035460055460405163095ea7b360e01b81526001600160a01b0391821660048201526024810185905291169063095ea7b3906044016020604051808303816000875af115801561017c573d6000803e3d6000fd5b505050506040513d601f19601f820116820180604052508101906101a0919061068c565b5060408051600380825260808201909252606091602082018380368337019050509050735a1cdd07b84ea4273283a717ad722c00ede6e79e816000815181106101eb576101eb6106cb565b6001600160a01b039283166020918202929092010152600180548351921691839190811061021b5761021b6106cb565b6001600160a01b03928316602091820292909201015260005482519116908290600290811061024c5761024c6106cb565b6001600160a01b039283166020918202929092010152600554604051634401edf760e11b81526000929190911690638803dbee9061029690889088908790339042906004016106e1565b6000604051808303816000875af11580156102b5573d6000803e3d6000fd5b505050506040513d6000823e601f3d908101601f191682016040526102dd9190810190610752565b905083816000815181106102f3576102f36106cb565b602002602001015110156103af5760035481516001600160a01b039091169063a9059cbb903390849060009061032b5761032b6106cb565b60200260200101518761033e9190610810565b6040516001600160e01b031960e085901b1681526001600160a01b03909216600483015260248201526044016020604051808303816000875af1158015610389573d6000803e3d6000fd5b505050506040513d601f19601f820116820180604052508101906103ad919061068c565b505b806002815181106103c2576103c26106cb565b6020026020010151925050505b92915050565b600480546040516323b872dd60e01b81523392810192909252306024830152604482018390526000916001600160a01b03909116906323b872dd906064016020604051808303816000875af1158015610432573d6000803e3d6000fd5b505050506040513d601f19601f82011682018060405250810190610456919061068c565b506004805460055460405163095ea7b360e01b81526001600160a01b039182169381019390935260248301859052169063095ea7b3906044016020604051808303816000875af11580156104ae573d6000803e3d6000fd5b505050506040513d601f19601f820116820180604052508101906104d2919061068c565b506040805160038082526080820190925260609160208201838036833750506000805483519394506001600160a01b031692849250610513576105136106cb565b6001600160a01b0392831660209182029290920101526001805483519216918391908110610543576105436106cb565b60200260200101906001600160a01b031690816001600160a01b031681525050735a1cdd07b84ea4273283a717ad722c00ede6e79e8160028151811061058b5761058b6106cb565b6001600160a01b039283166020918202929092010152600554604051634401edf760e11b81526000929190911690638803dbee906105d590889088908790339042906004016106e1565b6000604051808303816000875af11580156105f4573d6000803e3d6000fd5b505050506040513d6000823e601f3d908101601f1916820160405261061c9190810190610752565b90508381600081518110610632576106326106cb565b602002602001015110156103af5760045481516001600160a01b039091169063a9059cbb903390849060009061032b5761032b6106cb565b6000806040838503121561067d57600080fd5b50508035926020909101359150565b60006020828403121561069e57600080fd5b815180151581146106ae57600080fd5b9392505050565b634e487b7160e01b600052604160045260246000fd5b634e487b7160e01b600052603260045260246000fd5b600060a082018783526020878185015260a0604085015281875180845260c086019150828901935060005b818110156107315784516001600160a01b03168352938301939183019160010161070c565b50506001600160a01b03969096166060850152505050608001529392505050565b6000602080838503121561076557600080fd5b825167ffffffffffffffff8082111561077d57600080fd5b818501915085601f83011261079157600080fd5b8151818111156107a3576107a36106b5565b8060051b604051601f19603f830116810181811085821117156107c8576107c86106b5565b6040529182528482019250838101850191888311156107e657600080fd5b938501935b82851015610804578451845293850193928501926107eb565b98975050505050505050565b818103818111156103cf57634e487b7160e01b600052601160045260246000fdfea2646970667358221220a2cb5110a5597df5452af59c9510e4f2025736123fe84fe35680718cd8035bf164736f6c63430008140033",
  "linkReferences": {},
  "deployedLinkReferences": {}
}